{
  "contractName": "Phases",
  "abi": [
    {
      "inputs": [],
      "payable": false,
      "stateMutability": "nonpayable",
      "type": "constructor"
    },
    {
      "anonymous": false,
      "inputs": [
        {
          "indexed": false,
          "internalType": "string",
          "name": "_name",
          "type": "string"
        },
        {
          "indexed": false,
          "internalType": "string",
          "name": "_location",
          "type": "string"
        },
        {
          "indexed": false,
          "internalType": "uint256",
          "name": "_id",
          "type": "uint256"
        }
      ],
      "name": "NewPhase",
      "type": "event"
    },
    {
      "constant": true,
      "inputs": [
        {
          "internalType": "uint256",
          "name": "",
          "type": "uint256"
        }
      ],
      "name": "phaseHolder",
      "outputs": [
        {
          "internalType": "string",
          "name": "phaseName",
          "type": "string"
        },
        {
          "internalType": "string",
          "name": "location",
          "type": "string"
        },
        {
          "internalType": "bool",
          "name": "active",
          "type": "bool"
        }
      ],
      "payable": false,
      "stateMutability": "view",
      "type": "function"
    },
    {
      "constant": false,
      "inputs": [
        {
          "internalType": "string",
          "name": "_phasename",
          "type": "string"
        },
        {
          "internalType": "string",
          "name": "_location",
          "type": "string"
        }
      ],
      "name": "createNewPhase",
      "outputs": [
        {
          "internalType": "bool",
          "name": "",
          "type": "bool"
        }
      ],
      "payable": false,
      "stateMutability": "nonpayable",
      "type": "function"
    },
    {
      "constant": true,
      "inputs": [
        {
          "internalType": "uint256",
          "name": "_phaseId",
          "type": "uint256"
        }
      ],
      "name": "isValidPhase",
      "outputs": [
        {
          "internalType": "bool",
          "name": "",
          "type": "bool"
        }
      ],
      "payable": false,
      "stateMutability": "view",
      "type": "function"
    },
    {
      "constant": true,
      "inputs": [
        {
          "internalType": "uint256",
          "name": "_phaseId",
          "type": "uint256"
        }
      ],
      "name": "getPhaseInfo",
      "outputs": [
        {
          "internalType": "string",
          "name": "",
          "type": "string"
        },
        {
          "internalType": "string",
          "name": "",
          "type": "string"
        },
        {
          "internalType": "bool",
          "name": "",
          "type": "bool"
        }
      ],
      "payable": false,
      "stateMutability": "view",
      "type": "function"
    },
    {
      "constant": true,
      "inputs": [],
      "name": "getTotalPhases",
      "outputs": [
        {
          "internalType": "uint256",
          "name": "",
          "type": "uint256"
        }
      ],
      "payable": false,
      "stateMutability": "view",
      "type": "function"
    },
    {
      "constant": false,
      "inputs": [
        {
          "internalType": "uint256",
          "name": "_Id",
          "type": "uint256"
        }
      ],
      "name": "deactivatePhase",
      "outputs": [
        {
          "internalType": "bool",
          "name": "",
          "type": "bool"
        }
      ],
      "payable": false,
      "stateMutability": "nonpayable",
      "type": "function"
    }
  ],
  "bytecode": "0x608060405234801561001057600080fd5b50610ac0806100206000396000f3fe608060405234801561001057600080fd5b50600436106100625760003560e01c80631af1a5bf1461006757806339b47f0f1461018557806398c2fa07146101cb578063b5064eca146102e9578063d032222d1461032f578063f4b66f101461034d575b600080fd5b6100936004803603602081101561007d57600080fd5b81019080803590602001909291905050506104b7565b60405180806020018060200184151515158152602001838103835286818151815260200191508051906020019080838360005b838110156100e15780820151818401526020810190506100c6565b50505050905090810190601f16801561010e5780820380516001836020036101000a031916815260200191505b50838103825285818151815260200191508051906020019080838360005b8381101561014757808201518184015260208101905061012c565b50505050905090810190601f1680156101745780820380516001836020036101000a031916815260200191505b509550505050505060405180910390f35b6101b16004803603602081101561019b57600080fd5b810190808035906020019092919050505061061e565b604051808215151515815260200191505060405180910390f35b6101f7600480360360208110156101e157600080fd5b8101908080359060200190929190505050610657565b60405180806020018060200184151515158152602001838103835286818151815260200191508051906020019080838360005b8381101561024557808201518184015260208101905061022a565b50505050905090810190601f1680156102725780820380516001836020036101000a031916815260200191505b50838103825285818151815260200191508051906020019080838360005b838110156102ab578082015181840152602081019050610290565b50505050905090810190601f1680156102d85780820380516001836020036101000a031916815260200191505b509550505050505060405180910390f35b610315600480360360208110156102ff57600080fd5b81019080803590602001909291905050506107f1565b604051808215151515815260200191505060405180910390f35b61033761081e565b6040518082815260200191505060405180910390f35b61049d6004803603604081101561036357600080fd5b810190808035906020019064010000000081111561038057600080fd5b82018360208201111561039257600080fd5b803590602001918460018302840111640100000000831117156103b457600080fd5b91908080601f016020809104026020016040519081016040528093929190818152602001838380828437600081840152601f19601f8201169050808301925050505050505091929192908035906020019064010000000081111561041757600080fd5b82018360208201111561042957600080fd5b8035906020019184600183028401116401000000008311171561044b57600080fd5b91908080601f016020809104026020016040519081016040528093929190818152602001838380828437600081840152601f19601f820116905080830192505050505050509192919290505050610827565b604051808215151515815260200191505060405180910390f35b6001602052806000526040600020600091509050806000018054600181600116156101000203166002900480601f0160208091040260200160405190810160405280929190818152602001828054600181600116156101000203166002900480156105635780601f1061053857610100808354040283529160200191610563565b820191906000526020600020905b81548152906001019060200180831161054657829003601f168201915b505050505090806001018054600181600116156101000203166002900480601f0160208091040260200160405190810160405280929190818152602001828054600181600116156101000203166002900480156106015780601f106105d657610100808354040283529160200191610601565b820191906000526020600020905b8154815290600101906020018083116105e457829003601f168201915b5050505050908060020160009054906101000a900460ff16905083565b6000806001600084815260200190815260200160002060020160006101000a81548160ff02191690831515021790555060019050919050565b606080600060016000858152602001908152602001600020600001600160008681526020019081526020016000206001016001600087815260200190815260200160002060020160009054906101000a900460ff16828054600181600116156101000203166002900480601f0160208091040260200160405190810160405280929190818152602001828054600181600116156101000203166002900480156107415780601f1061071657610100808354040283529160200191610741565b820191906000526020600020905b81548152906001019060200180831161072457829003601f168201915b50505050509250818054600181600116156101000203166002900480601f0160208091040260200160405190810160405280929190818152602001828054600181600116156101000203166002900480156107dd5780601f106107b2576101008083540402835291602001916107dd565b820191906000526020600020905b8154815290600101906020018083116107c057829003601f168201915b505050505091509250925092509193909250565b60006001600083815260200190815260200160002060020160009054906101000a900460ff169050919050565b60008054905090565b60008060008154809291906001019190505550604051806060016040528084815260200183815260200160011515815250600160008054815260200190815260200160002060008201518160000190805190602001906108889291906109e6565b5060208201518160010190805190602001906108a59291906109e6565b5060408201518160020160006101000a81548160ff0219169083151502179055509050507f30278e936ab8f44e0484d079e2eeedf3b64d2703d9e575a6632ad9458868a1888383600054604051808060200180602001848152602001838103835286818151815260200191508051906020019080838360005b8381101561093957808201518184015260208101905061091e565b50505050905090810190601f1680156109665780820380516001836020036101000a031916815260200191505b50838103825285818151815260200191508051906020019080838360005b8381101561099f578082015181840152602081019050610984565b50505050905090810190601f1680156109cc5780820380516001836020036101000a031916815260200191505b509550505050505060405180910390a16001905092915050565b828054600181600116156101000203166002900490600052602060002090601f016020900481019282601f10610a2757805160ff1916838001178555610a55565b82800160010185558215610a55579182015b82811115610a54578251825591602001919060010190610a39565b5b509050610a629190610a66565b5090565b610a8891905b80821115610a84576000816000905550600101610a6c565b5090565b9056fea265627a7a7231582069870d6c72a04c8fa9064fb06dd00102f9a11a833866d4ea2eb7d54f4f8edf4f64736f6c63430005100032",
  "source": "pragma solidity ^0.5.12;\r\n\r\ncontract Phases{\r\n    uint totalPhases;\r\n    \r\n    struct Phase {\r\n        string phaseName;\r\n        string location;\r\n        bool active;\r\n    }\r\n\r\n    event NewPhase(string _name, string _location, uint _id);\r\n\r\n    mapping(uint => Phase) public phaseHolder;\r\n    constructor() public {}\r\n    \r\n    function createNewPhase(string memory _phasename, string memory _location) public returns(bool){\r\n        totalPhases++;\r\n        phaseHolder[totalPhases] = Phase(_phasename, _location, true);\r\n\r\n        emit NewPhase(_phasename, _location, totalPhases);\r\n        return true;\r\n    }\r\n    \r\n    function isValidPhase(uint _phaseId) public view returns(bool){\r\n        return phaseHolder[_phaseId].active;\r\n    }\r\n    \r\n    function getPhaseInfo(uint _phaseId) public view returns(string memory, string memory, bool){\r\n        return (phaseHolder[_phaseId].phaseName, phaseHolder[_phaseId].location, phaseHolder[_phaseId].active);\r\n    }\r\n    \r\n    function getTotalPhases() public view returns(uint){\r\n        return totalPhases;\r\n    }\r\n    \r\n    function deactivatePhase(uint _Id) public returns(bool){\r\n        phaseHolder[_Id].active = false;\r\n        return true;\r\n    }\r\n\r\n}",
  "sourcePath": "C:\\Users\\Gimer Cervera\\Test\\project\\contracts\\Phases.sol",
  "compiler": {
    "name": "solc",
    "version": "0.5.16+commit.9c3226ce.Emscripten.clang"
  },
  "schemaVersion": "3.2.0",
  "updatedAt": "2020-06-24T17:35:55.377Z",
  "devdoc": {
    "methods": {}
  },
  "userdoc": {
    "methods": {}
  }
}