{
  "contractName": "Products",
  "abi": [
    {
      "inputs": [],
      "payable": false,
      "stateMutability": "nonpayable",
      "type": "constructor"
    },
    {
      "anonymous": false,
      "inputs": [
        {
          "indexed": false,
          "internalType": "string",
          "name": "_name",
          "type": "string"
        },
        {
          "indexed": false,
          "internalType": "string",
          "name": "_location",
          "type": "string"
        },
        {
          "indexed": false,
          "internalType": "uint256",
          "name": "_id",
          "type": "uint256"
        }
      ],
      "name": "NewPhase",
      "type": "event"
    },
    {
      "constant": false,
      "inputs": [
        {
          "internalType": "string",
          "name": "_phasename",
          "type": "string"
        },
        {
          "internalType": "string",
          "name": "_location",
          "type": "string"
        }
      ],
      "name": "createNewPhase",
      "outputs": [
        {
          "internalType": "bool",
          "name": "",
          "type": "bool"
        }
      ],
      "payable": false,
      "stateMutability": "nonpayable",
      "type": "function"
    },
    {
      "constant": false,
      "inputs": [
        {
          "internalType": "uint256",
          "name": "_Id",
          "type": "uint256"
        }
      ],
      "name": "deactivatePhase",
      "outputs": [
        {
          "internalType": "bool",
          "name": "",
          "type": "bool"
        }
      ],
      "payable": false,
      "stateMutability": "nonpayable",
      "type": "function"
    },
    {
      "constant": true,
      "inputs": [
        {
          "internalType": "uint256",
          "name": "_phaseId",
          "type": "uint256"
        }
      ],
      "name": "getPhaseInfo",
      "outputs": [
        {
          "internalType": "string",
          "name": "",
          "type": "string"
        },
        {
          "internalType": "string",
          "name": "",
          "type": "string"
        },
        {
          "internalType": "bool",
          "name": "",
          "type": "bool"
        }
      ],
      "payable": false,
      "stateMutability": "view",
      "type": "function"
    },
    {
      "constant": true,
      "inputs": [],
      "name": "getTotalPhases",
      "outputs": [
        {
          "internalType": "uint256",
          "name": "",
          "type": "uint256"
        }
      ],
      "payable": false,
      "stateMutability": "view",
      "type": "function"
    },
    {
      "constant": true,
      "inputs": [
        {
          "internalType": "uint256",
          "name": "_phaseId",
          "type": "uint256"
        }
      ],
      "name": "isValidPhase",
      "outputs": [
        {
          "internalType": "bool",
          "name": "",
          "type": "bool"
        }
      ],
      "payable": false,
      "stateMutability": "view",
      "type": "function"
    },
    {
      "constant": true,
      "inputs": [],
      "name": "owner",
      "outputs": [
        {
          "internalType": "address",
          "name": "",
          "type": "address"
        }
      ],
      "payable": false,
      "stateMutability": "view",
      "type": "function"
    },
    {
      "constant": true,
      "inputs": [
        {
          "internalType": "uint256",
          "name": "",
          "type": "uint256"
        }
      ],
      "name": "phaseHolder",
      "outputs": [
        {
          "internalType": "string",
          "name": "phaseName",
          "type": "string"
        },
        {
          "internalType": "string",
          "name": "location",
          "type": "string"
        },
        {
          "internalType": "bool",
          "name": "active",
          "type": "bool"
        }
      ],
      "payable": false,
      "stateMutability": "view",
      "type": "function"
    },
    {
      "constant": true,
      "inputs": [
        {
          "internalType": "uint256",
          "name": "",
          "type": "uint256"
        }
      ],
      "name": "productHolder",
      "outputs": [
        {
          "internalType": "string",
          "name": "productName",
          "type": "string"
        },
        {
          "internalType": "string",
          "name": "productInfo",
          "type": "string"
        },
        {
          "internalType": "address",
          "name": "productOwner",
          "type": "address"
        }
      ],
      "payable": false,
      "stateMutability": "view",
      "type": "function"
    },
    {
      "constant": false,
      "inputs": [
        {
          "internalType": "string",
          "name": "_name",
          "type": "string"
        },
        {
          "internalType": "string",
          "name": "_productInfo",
          "type": "string"
        }
      ],
      "name": "createNewProduct",
      "outputs": [
        {
          "internalType": "bool",
          "name": "",
          "type": "bool"
        }
      ],
      "payable": false,
      "stateMutability": "nonpayable",
      "type": "function"
    },
    {
      "constant": false,
      "inputs": [
        {
          "internalType": "uint256",
          "name": "_phaseId",
          "type": "uint256"
        },
        {
          "internalType": "uint256",
          "name": "_productId",
          "type": "uint256"
        }
      ],
      "name": "assignPhase",
      "outputs": [
        {
          "internalType": "bool",
          "name": "",
          "type": "bool"
        }
      ],
      "payable": false,
      "stateMutability": "nonpayable",
      "type": "function"
    },
    {
      "constant": true,
      "inputs": [
        {
          "internalType": "uint256",
          "name": "_id",
          "type": "uint256"
        }
      ],
      "name": "getProductName",
      "outputs": [
        {
          "internalType": "string",
          "name": "",
          "type": "string"
        }
      ],
      "payable": false,
      "stateMutability": "view",
      "type": "function"
    },
    {
      "constant": true,
      "inputs": [
        {
          "internalType": "uint256",
          "name": "_id",
          "type": "uint256"
        }
      ],
      "name": "getProductTotalPhases",
      "outputs": [
        {
          "internalType": "uint256",
          "name": "",
          "type": "uint256"
        }
      ],
      "payable": false,
      "stateMutability": "view",
      "type": "function"
    },
    {
      "constant": true,
      "inputs": [],
      "name": "getTotalProducts",
      "outputs": [
        {
          "internalType": "uint256",
          "name": "",
          "type": "uint256"
        }
      ],
      "payable": false,
      "stateMutability": "view",
      "type": "function"
    }
  ],
  "bytecode": "0x608060405234801561001057600080fd5b5033600360006101000a81548173ffffffffffffffffffffffffffffffffffffffff021916908373ffffffffffffffffffffffffffffffffffffffff1602179055506113de806100616000396000f3fe608060405234801561001057600080fd5b50600436106100cf5760003560e01c806398c2fa071161008c578063b5064eca11610066578063b5064eca14610661578063baf3773a146106a7578063d032222d146107ed578063f4b66f101461080b576100cf565b806398c2fa071461045a5780639cfffede146105785780639e62e795146105ba576100cf565b80631af1a5bf146100d457806339b47f0f146101f2578063570aea8a1461023857806378ac68861461025657806381ee3122146103c05780638da5cb5b14610410575b600080fd5b610100600480360360208110156100ea57600080fd5b8101908080359060200190929190505050610975565b60405180806020018060200184151515158152602001838103835286818151815260200191508051906020019080838360005b8381101561014e578082015181840152602081019050610133565b50505050905090810190601f16801561017b5780820380516001836020036101000a031916815260200191505b50838103825285818151815260200191508051906020019080838360005b838110156101b4578082015181840152602081019050610199565b50505050905090810190601f1680156101e15780820380516001836020036101000a031916815260200191505b509550505050505060405180910390f35b61021e6004803603602081101561020857600080fd5b8101908080359060200190929190505050610adc565b604051808215151515815260200191505060405180910390f35b610240610b15565b6040518082815260200191505060405180910390f35b6103a66004803603604081101561026c57600080fd5b810190808035906020019064010000000081111561028957600080fd5b82018360208201111561029b57600080fd5b803590602001918460018302840111640100000000831117156102bd57600080fd5b91908080601f016020809104026020016040519081016040528093929190818152602001838380828437600081840152601f19601f8201169050808301925050505050505091929192908035906020019064010000000081111561032057600080fd5b82018360208201111561033257600080fd5b8035906020019184600183028401116401000000008311171561035457600080fd5b91908080601f016020809104026020016040519081016040528093929190818152602001838380828437600081840152601f19601f820116905080830192505050505050509192919290505050610b1f565b604051808215151515815260200191505060405180910390f35b6103f6600480360360408110156103d657600080fd5b810190808035906020019092919080359060200190929190505050610c4f565b604051808215151515815260200191505060405180910390f35b610418610cad565b604051808273ffffffffffffffffffffffffffffffffffffffff1673ffffffffffffffffffffffffffffffffffffffff16815260200191505060405180910390f35b6104866004803603602081101561047057600080fd5b8101908080359060200190929190505050610cd3565b60405180806020018060200184151515158152602001838103835286818151815260200191508051906020019080838360005b838110156104d45780820151818401526020810190506104b9565b50505050905090810190601f1680156105015780820380516001836020036101000a031916815260200191505b50838103825285818151815260200191508051906020019080838360005b8381101561053a57808201518184015260208101905061051f565b50505050905090810190601f1680156105675780820380516001836020036101000a031916815260200191505b509550505050505060405180910390f35b6105a46004803603602081101561058e57600080fd5b8101908080359060200190929190505050610e6d565b6040518082815260200191505060405180910390f35b6105e6600480360360208110156105d057600080fd5b8101908080359060200190929190505050610e90565b6040518080602001828103825283818151815260200191508051906020019080838360005b8381101561062657808201518184015260208101905061060b565b50505050905090810190601f1680156106535780820380516001836020036101000a031916815260200191505b509250505060405180910390f35b61068d6004803603602081101561067757600080fd5b8101908080359060200190929190505050610f48565b604051808215151515815260200191505060405180910390f35b6106d3600480360360208110156106bd57600080fd5b8101908080359060200190929190505050610f75565b6040518080602001806020018473ffffffffffffffffffffffffffffffffffffffff1673ffffffffffffffffffffffffffffffffffffffff168152602001838103835286818151815260200191508051906020019080838360005b8381101561074957808201518184015260208101905061072e565b50505050905090810190601f1680156107765780820380516001836020036101000a031916815260200191505b50838103825285818151815260200191508051906020019080838360005b838110156107af578082015181840152602081019050610794565b50505050905090810190601f1680156107dc5780820380516001836020036101000a031916815260200191505b509550505050505060405180910390f35b6107f56110ef565b6040518082815260200191505060405180910390f35b61095b6004803603604081101561082157600080fd5b810190808035906020019064010000000081111561083e57600080fd5b82018360208201111561085057600080fd5b8035906020019184600183028401116401000000008311171561087257600080fd5b91908080601f016020809104026020016040519081016040528093929190818152602001838380828437600081840152601f19601f820116905080830192505050505050509192919290803590602001906401000000008111156108d557600080fd5b8201836020820111156108e757600080fd5b8035906020019184600183028401116401000000008311171561090957600080fd5b91908080601f016020809104026020016040519081016040528093929190818152602001838380828437600081840152601f19601f8201169050808301925050505050505091929192905050506110f8565b604051808215151515815260200191505060405180910390f35b6001602052806000526040600020600091509050806000018054600181600116156101000203166002900480601f016020809104026020016040519081016040528092919081815260200182805460018160011615610100020316600290048015610a215780601f106109f657610100808354040283529160200191610a21565b820191906000526020600020905b815481529060010190602001808311610a0457829003601f168201915b505050505090806001018054600181600116156101000203166002900480601f016020809104026020016040519081016040528092919081815260200182805460018160011615610100020316600290048015610abf5780601f10610a9457610100808354040283529160200191610abf565b820191906000526020600020905b815481529060010190602001808311610aa257829003601f168201915b5050505050908060020160009054906101000a900460ff16905083565b6000806001600084815260200190815260200160002060020160006101000a81548160ff02191690831515021790555060019050919050565b6000600254905090565b600060026000815480929190600101919050555060606040518060800160405280858152602001848152602001600360009054906101000a900473ffffffffffffffffffffffffffffffffffffffff1673ffffffffffffffffffffffffffffffffffffffff168152602001828152506004600060025481526020019081526020016000206000820151816000019080519060200190610bbf9291906112b7565b506020820151816001019080519060200190610bdc9291906112b7565b5060408201518160020160006101000a81548173ffffffffffffffffffffffffffffffffffffffff021916908373ffffffffffffffffffffffffffffffffffffffff1602179055506060820151816003019080519060200190610c40929190611337565b50905050600191505092915050565b6000610c5a83610f48565b610c6357600080fd5b600460008381526020019081526020016000206003018390806001815401808255809150509060018203906000526020600020016000909192909190915055506001905092915050565b600360009054906101000a900473ffffffffffffffffffffffffffffffffffffffff1681565b606080600060016000858152602001908152602001600020600001600160008681526020019081526020016000206001016001600087815260200190815260200160002060020160009054906101000a900460ff16828054600181600116156101000203166002900480601f016020809104026020016040519081016040528092919081815260200182805460018160011615610100020316600290048015610dbd5780601f10610d9257610100808354040283529160200191610dbd565b820191906000526020600020905b815481529060010190602001808311610da057829003601f168201915b50505050509250818054600181600116156101000203166002900480601f016020809104026020016040519081016040528092919081815260200182805460018160011615610100020316600290048015610e595780601f10610e2e57610100808354040283529160200191610e59565b820191906000526020600020905b815481529060010190602001808311610e3c57829003601f168201915b505050505091509250925092509193909250565b600060046000838152602001908152602001600020600301805490509050919050565b6060600460008381526020019081526020016000206000018054600181600116156101000203166002900480601f016020809104026020016040519081016040528092919081815260200182805460018160011615610100020316600290048015610f3c5780601f10610f1157610100808354040283529160200191610f3c565b820191906000526020600020905b815481529060010190602001808311610f1f57829003601f168201915b50505050509050919050565b60006001600083815260200190815260200160002060020160009054906101000a900460ff169050919050565b6004602052806000526040600020600091509050806000018054600181600116156101000203166002900480601f0160208091040260200160405190810160405280929190818152602001828054600181600116156101000203166002900480156110215780601f10610ff657610100808354040283529160200191611021565b820191906000526020600020905b81548152906001019060200180831161100457829003601f168201915b505050505090806001018054600181600116156101000203166002900480601f0160208091040260200160405190810160405280929190818152602001828054600181600116156101000203166002900480156110bf5780601f10611094576101008083540402835291602001916110bf565b820191906000526020600020905b8154815290600101906020018083116110a257829003601f168201915b5050505050908060020160009054906101000a900473ffffffffffffffffffffffffffffffffffffffff16905083565b60008054905090565b60008060008154809291906001019190505550604051806060016040528084815260200183815260200160011515815250600160008054815260200190815260200160002060008201518160000190805190602001906111599291906112b7565b5060208201518160010190805190602001906111769291906112b7565b5060408201518160020160006101000a81548160ff0219169083151502179055509050507f30278e936ab8f44e0484d079e2eeedf3b64d2703d9e575a6632ad9458868a1888383600054604051808060200180602001848152602001838103835286818151815260200191508051906020019080838360005b8381101561120a5780820151818401526020810190506111ef565b50505050905090810190601f1680156112375780820380516001836020036101000a031916815260200191505b50838103825285818151815260200191508051906020019080838360005b83811015611270578082015181840152602081019050611255565b50505050905090810190601f16801561129d5780820380516001836020036101000a031916815260200191505b509550505050505060405180910390a16001905092915050565b828054600181600116156101000203166002900490600052602060002090601f016020900481019282601f106112f857805160ff1916838001178555611326565b82800160010185558215611326579182015b8281111561132557825182559160200191906001019061130a565b5b5090506113339190611384565b5090565b828054828255906000526020600020908101928215611373579160200282015b82811115611372578251825591602001919060010190611357565b5b5090506113809190611384565b5090565b6113a691905b808211156113a257600081600090555060010161138a565b5090565b9056fea265627a7a72315820be63a7b20555a3b79b66dc979cefb3d6b395bcb4f732efc760379316c65bd17664736f6c63430005100032",
  "source": "pragma solidity ^0.5.12;\r\nimport \"./Phases.sol\";\r\n\r\ncontract Products is Phases{\r\n\r\n    uint private totalProducts;\r\n    address public owner;\r\n\r\n    struct Product {\r\n        string productName;\r\n        string productInfo;\r\n        address productOwner;\r\n        uint[] phases;\r\n    }\r\n\r\n    mapping(uint => Product) public  productHolder;\r\n\r\n    constructor() public {\r\n       owner = msg.sender;\r\n    }\r\n\r\n    function createNewProduct(string memory _name, string memory _productInfo) public returns(bool){\r\n        totalProducts++;\r\n        uint[] memory _phases;\r\n        \r\n        productHolder[totalProducts] = Product(_name, _productInfo, owner, _phases);\r\n        return true;\r\n    }\r\n    \r\n    function assignPhase(uint _phaseId, uint _productId) public returns(bool){\r\n        require(isValidPhase(_phaseId));\r\n        productHolder[_productId].phases.push(_phaseId);\r\n        return true;\r\n    }\r\n    \r\n    function getProductName(uint _id) public view returns(string memory){\r\n        return productHolder[_id].productName;\r\n    }\r\n    \r\n    function getProductTotalPhases(uint _id) public view returns(uint){\r\n        return productHolder[_id].phases.length;\r\n    }\r\n    \r\n    \r\n    function getTotalProducts() view public returns(uint){\r\n        return totalProducts;\r\n    }\r\n\r\n}",
  "sourcePath": "C:\\Users\\Gimer Cervera\\Test\\project\\contracts\\Products.sol",
  "compiler": {
    "name": "solc",
    "version": "0.5.16+commit.9c3226ce.Emscripten.clang"
  },
  "schemaVersion": "3.2.0",
  "updatedAt": "2020-06-24T17:35:59.513Z",
  "networkType": "ethereum",
  "devdoc": {
    "methods": {}
  },
  "userdoc": {
    "methods": {}
  }
}